:020000040800F2
:100000000000052479420008712E0008732E0008B4
:10001000752E0008772E0008792E000800000000D9
:100020000000000000000000000000007B2E00081F
:100030007D2E0008000000007F2E0008812E0008A1
:10004000CD420008CD420008CD420008CD42000854
:10005000CD420008CD420008CD420008CD42000844
:10006000CD420008CD420008CD420008892E00088C
:10007000992E0008A92E0008B92E0008C92E0008E4
:10008000D92E0008E92E0008CD420008F92E0008FC
:10009000092F0008192F0008292F0008CD42000859
:1000A000CD420008CD420008CD420008CD420008F4
:1000B000CD420008CD420008392F0008CD4200088B
:1000C000CD420008CD420008CD420008CD420008D4
:1000D000492F0008592F0008692F0008792F0008C0
:1000E000892F0008CD42000800000000CD42000822
:1000F0009D2F0008CD420008CD420008AD2F00081A
:10010000CD420008CD420008BD2F0008CD420008B6
:10011000CD420008CD2F0008DD2F0008ED2F00088C
:10012000FD2F00080D3000081D3000082D3000089C
:100130003D300008CD420008CD420008CD42000805
:1001400000000000000000000000000000000000AF
:100150004D300008CD420008CD420008CD420008D5
:10016000CD420008CD420008CD420008CD42000833
:10017000CD4200085D300008CD42000800000000BC
:10018000CD420008CD4200086D300008CD42000885
:10019000CD420008CD420008CD420008CD42000803
:1001A000CD420008CD420008CD420008000000000A
:1001B000CD420008CD420008CD420008CD420008E3
:1001C000CD420008CD420008000000000000000001
:1001D0000000000000000000CD4200080000000008
:1001E000000000000000000000000000000000000F
:1001F0000000000000000000CD420008CD420008D1
:10020000CD420008CD42000800000000CD420008A9
:10021000CD420008CD420008CD420008CD42000882
:10022000CD420008000000007D3000080000000002
:10023000CD420008CD42000800000000CD42000879
:10024000CD420008CD420008CD420008CD42000852
:10025000CD420008CD420008CD420008CD42000842
:10026000CD420008CD420008CD420008CD42000832
:10027000CD420008CD420008CD4200080000000039
:10028000CD420008CD420008CD420008CD42000812
:1002900000000000CD4200088D3000080000000082
:1002A00000000000CD420008CD420008CD42000809
:1002B0009D300008CD420008CD420008AD30000856
:0C02C000BD300008CD420008CD4200080F
:1002D0000348044B834202D0034B03B118477047D5
:1002E0008401002484010024000000000548064B1E
:1002F0001B1AD90F01EBA301491002D0034B03B124
:100300001847704784010024840100240000000085
:1003100010B5064C237843B9FFF7DAFF044B13B14D
:100320000448AFF300800123237010BD880100242E
:10033000000000003C56010808B5044B1BB10449FD
:100340000448AFF30080BDE80840CFE7000000009C
:100350008C0100243C56010808B52DED028BB0EE4F
:10036000408A00F05DF8B4EE488AF1EE10FAF0EE43
:10037000408A0AD6B0EE480A00F070FEF7EE007A26
:10038000B4EEE70AF1EE10FA04DCB0EE680ABDEC58
:10039000028B08BD01F048FDBDEC028B0346212213
:1003A0001A600248BDE8084000F080B9D45B01083B
:1003B00010EE103A184923F000428A421AD9B2F1DD
:1003C000FF4F02D330EE400A704700B583B0684655
:1003D00000F014FD00F003000128DDED010A9DEDA1
:1003E000000A10D0022809D090B900F065F903B0D6
:1003F0005DF804FBDFED090A00F05EB900F05CF97E
:10040000B1EE400AF3E700F0B1FCB1EE400AEEE7CE
:10041000012000F0ABFCEAE7D80F493F00000000E4
:1004200008B510EE102A22F00043B3F17E5F2DEDE7
:10043000028B12D00AD8B3F17C5F19D2B3F10C5FF2
:100440006AD8BDEC028B9FED760A08BD70EE407A4B
:1004500087EEA70ABDEC028B08BDBDEC028B9FEDB9
:10046000710ADFED717A002AC8BFB0EE670A08BDD5
:10047000002AC0F28E80F7EE008A38EEC00AF6EE4F
:10048000007A20EE278AB0EE480A01F00DF9DFED80
:10049000677A9FED677ADFED676ADFED675A9FED58
:1004A000676AA8EE277ADFED667AE7EE086AE8EE7B
:1004B000067AE6EE885A9FED636A9FED637ADFED78
:1004C000636AA5EE886AA7EE887ADFED617AE6EEC8
:1004D000087A10EE103AE7EE086A6FF30B03B0EEFD
:1004E000677A07EE903AF0EE485AE7EEE75AE6EE02
:1004F000888A30EE276A27EE087AC5EE866A87EE8C
:10050000286ABDEC028BB0EE667AA0EE067A37EE72
:10051000870A30EE000A08BD20EE007ADFED437A4C
:100520009FED436ADFED436A9FED445ADFED425A87
:10053000A7EE276ABDEC028BE6EE076ADFED407A94
:100540009FED416AE7EE057AE6EE875AA7EE876AE5
:100550009FED3C5ADFED3D7ADFED3D6AA5EE875A0F
:10056000E6EE077AE5EE076AF7EE005AE7EE875AFD
:1005700026EE877A9FED376ADFED377AC7EE256A78
:10058000B0EE467AA0EE667A30EE470A37EEC00A41
:1005900008BDB7EE007A30EE070AF6EE007A60EE9C
:1005A000277ADFED226A9FED226ADFED224ADFED36
:1005B000235A9FED215A9FED268AA7EEA66ADFED0A
:1005C000206AE6EE274AE7EEA56ADFED1F5A9FEDA7
:1005D0001D6AA4EEA75AE6EEA75ADFED1C6AA5EE47
:1005E000276AE5EEA76AA6EE278AA6EEA77A28EE86
:1005F000278AF0EE478AB0EE670A01F055F888EED8
:10060000286A9FED167ADFED167AA0EE067AF0EEF4
:10061000006A37EE007AE7EE667AB0EE670A19E70D
:10062000DB0FC93FDB0F49400000000008EF113825
:10063000047F4F3A461124BDA80A4E3E2EC69D3D6A
:10064000613330BF90B0A6BE2D57014039D119C0DB
:10065000ABAA2A3E6821A233DA0FC93F6821A2B3B0
:10066000DA0F494008B52DED028BB0EE408A01F05B
:100670001BF8B4EE488AF1EE10FA06D6DFED098ACF
:10068000B4EEE88AF1EE10FA02D4BDEC028B08BD9C
:1006900001F0CAFB88EEA80ABDEC028B212303609F
:1006A00008BD00BF0000000000F0EAB99FED010A9C
:1006B000704700BF0000C07F10EE103A23F00043E7
:1006C000B3F1485F2CD2FDEEC07A17EE903A002BC2
:1006D00060D060EE007A9FED317A9FED315ADFED08
:1006E000315A9FED316ADFED316AA7EE875A9FEDEF
:1006F000307AE7EE855AA7EEA56AA7EE867AE7EE8E
:10070000876A67EEA66A60EEC00AB6EE007AE7EE88
:10071000A60AB7EE000AD7EE870A30EE600A7047E5
:1007200060EE007A9FED1D7A9FED1D5ADFED1D5A98
:100730009FED1D6ADFED1D6A1E4AA7EE875A9342A0
:100740009FED1B7AE5EE275AA5EEA76AA6EE277A5B
:10075000E7EE276A66EEA76AD5D9174A934214D8FE
:1007600003F17F4307EE103AB7EE006A36EE476AB0
:1007700060EEC00AF6EE005A97EEA57AE7EEA60AFA
:1007800037EE607A36EE470A7047B6EE076AB5EE86
:10079000027AEDE7B7EE000A704700BF4ED747ADCB
:1007A000F6740F317CF293B4010DD037ABAA2A3D19
:1007B000610BB6BA9999993E0000483F10EE103A85
:1007C000194923F000428A421BD9B2F1FF4F02D3EC
:1007D00030EE400A704700B583B0684600F00EFB6B
:1007E00000F003000128DDED010A9DED000A13D0A1
:1007F00002280BD098B9012000F0B8FA03B05DF8D8
:1008000004FBDFED0A0A002000F0B0BA012000F07E
:10081000ADFAB1EE400AF1E7FFF74EFFEEE7FFF762
:100820004BFFB1EE400AE9E7D80F493F0000000056
:1008300008B52DED028BB0EE408A00F025F8B4EE3D
:10084000488AF1EE10FAF0EE408A0AD6B0EE480A75
:1008500000F004FCF7EE007AB4EEE70AF1EE10FACD
:1008600004DCB0EE680ABDEC028B08BD01F0DCFAD6
:10087000BDEC028B034621221A600248BDE8084005
:10088000FFF714BFD45B010838B510EE105A25F0FD
:100890000044B4F17E5F2DED048BF0EE407A7FD002
:1008A00077D8B4F17C5F0ED2B4F1485F80F09280CB
:1008B0009FED637A30EE077AF7EE006AB4EEE67ADF
:1008C000F1EE10FA62DCB0EE670A00F0C7FBF7EE5B
:1008D000007A37EEC08AB6EE007A28EE078ADFED9E
:1008E000596A9FED597A9FED596A9FED595ADFED8C
:1008F000595ADFED598AE8EE076A9FED587AA8EE5B
:10090000067A9FED576AA6EE885AA7EE086A9FED11
:10091000557ADFED556AE5EE085AA6EE087AE5EE5F
:10092000886AE7EE087AE6EE888AB0EE480AB0EE0A
:10093000679A00F0B9FE4D4B9C4268EE888A3AD81F
:1009400010EE103A6FF30B0306EE903AA6EEE68A2D
:1009500070EE267A88EE895AC8EE274A9FED447ACF
:10096000DFED447AB0EE006AA4EEC67A30EE000AFB
:10097000F0EE675A90EE057AE6EEC65A37EE657AE3
:1009800037EEC70A002D01DCB1EE400ABDEC048B46
:1009900038BDBDEC048B70EE407A87EEA70A38BDF7
:1009A000BDEC048B9FED320A9FED337A27EE800A6F
:1009B000A7EE870A38BD88EE896A9FED307ADFEDB1
:1009C0002E7AA0EE060AF0EE006AA0EE267A37EE46
:1009D000C70AD7E720EE007ADFED1B6A9FED196AA0
:1009E000DFED1B5A9FED195ADFED1A4AA7EE266A72
:1009F000BDEC048BE6EE075ADFED186A9FED186A2E
:100A0000E7EE056AE5EE874AA6EE876A9FED165A7D
:100A1000DFED145ADFED106AA4EE875AE6EE075AAE
:100A2000E5EE076AB7EE006AA5EE876A26EE877ADA
:100A3000C7EE066AE0EE267AB0EE670A38BD00BF60
:100A4000CAF24971047F4F3A08EF11382EC69D3D16
:100A5000461124BDA80A4E3EABAA2A3E613330BFE0
:100A60002D57014039D119C090B0A6BE9999793F50
:100A70002EBD3BB3DB0F493FDB0FC93F2EBD3B33E0
:100A800010B582B0CDED010A019B23F00042B2F116
:100A9000FF4FF0EE407A30D810EE100A20F00041FF
:100AA000B1F1FF4F29D8B3F17E5F42D09C1704F01B
:100AB000020444EAD07431B37AB3B2F1FF4F40D0AC
:100AC000B1F1FF4F29D0891AB1F1F45F4FEAE15239
:100AD00034DA002B42DA3C3240DA9FED340A012C42
:100AE0004ED0022C43D064B19FED317ADFED317AE4
:100AF00030EE070A30EE670A03E09DED017A37EE2B
:100B0000270A02B010BD022C10D09FED2B7A032CC7
:100B100008BFB0EE470A02B010BD9FED280ADFED16
:100B2000287A0028A8BFB0EE670AEAE79FED210AFD
:100B3000E7E702B0BDE8104000F048B89FED200A9A
:100B4000CDE7B1F1FF4F04F1FF3420D0022C26D8BD
:100B50001C4B03EB840393ED030AD2E79DED017A6E
:100B600087EE870A00F07AFA00F030F8B7E79FEDD9
:100B7000107ADFED107A30EE070A37EEC00AC0E7D0
:100B800010EE103A03F1004300EE103AB9E7022CE0
:100B900008D80C4B03EB840393ED000AB1E79FEDFB
:100BA000030AAEE79FED080AABE700BF00000000B4
:100BB0002EBDBB33DB0F4940DB0F49C0DB0FC9BF84
:100BC000DB0FC93F38570108DB0F493F38B510EE3E
:100BD000105A25F00044B4F1A14FF0EE407A0DD345
:100BE000B4F1FF4F58D8DFED4F7A9FED4F7A002DCB
:100BF000CCBFB0EE470AB0EE670A38BD4B4B9C4203
:100C000059D8B4F1445F4AD34FF0FF3227EEA76AB8
:100C10009FED475A9FED477ADFED475ADFED474A90
:100C200066EE066A531CA6EE857AE6EEA54A9FEDAF
:100C3000445ADFED445AA7EE265AE4EEA65A9FED39
:100C4000427ADFED424AA5EE267AE5EEA64A9FED0E
:100C5000405ADFED405AA7EE265A9FED3F7AA4EEA8
:100C6000A67AE5EE265A27EE267AA5EE867A27EEB4
:100C7000877A35D0394B03EB820393ED046AD3EDC9
:100C8000006A37EE467A002D37EE677A36EEC70AED
:100C9000B3DAB1EE400A38BD30EE000A38BD9FED40
:100CA000307A30EE077AF7EE006AB4EEE67AF1EECB
:100CB00010FAA9DD38BD00F0D1F92A4B9C4212D8B8
:100CC000A3F5D0039C4223D8F0EE007ABFEE007A61
:100CD000A0EE277A002230EE270AC7EE007A95E7C9
:100CE00037EEC70A38BD204B9C420BD8F7EE087A86
:100CF000B7EE007AA0EE277A022230EE670AC0EE45
:100D0000077A83E7BFEE007AC7EE007A03227DE719
:100D1000F7EE007A30EE677A30EE270A0122C7EE4E
:100D2000007A73E7DB0FC9BFDB0FC93FFFFFDF3E70
:100D3000D769853C59DA4B3D21A215BD6BF16EBDDB
:100D4000356B883D95879DBD6E2EBA3D388EE3BDCF
:100D50002549123EABAAAA3ECDCC4CBE5057010845
:100D6000CAF24971FFFF973FFFFF1B4010EE103A98
:100D700023F00043B3F1485F04D2FDEEC07A17EED2
:100D8000903A5BB360EE007A9FED157ADFED155A6D
:100D90009FED156ADFED156AE7EE875A9FED147A2D
:100DA000A5EEA76A20EE275AE6EE276AA6EEA77AF6
:100DB00030B9DFED106AE7EE876AA6EE850A704764
:100DC00027EE457AF6EE006AA0EEA67ADFED0A6A13
:100DD000D7EE270AE5EE260A30EE600A704700BF1C
:100DE000D3C92E2F342FD7B21BEF3836010D50B98F
:100DF0008988083CABAA2ABEABAA2A3E70B510EE81
:100E0000103A884A23F00044944286B0054671D9CE
:100E1000854A94421E4624D823F00042002BDFED81
:100E2000837A834922F00F02B0EE407A40F3E080EB
:100E30008A4270EE677A09BF9FED7E7ADFED7E6AA7
:100E4000DFED7E6A77EEC77A37EEE67A77EEC77A1D
:100E500080ED007A77EEE67AC0ED017A012006B0E7
:100E600070BD774A944252D9B4F1FF4F48D2E2158F
:100E7000863AA4EBC25307EE903ABDEEE77ADFED77
:100E8000716AB8EEC77A77EEC77A8DED037A67EEAE
:100E9000A67ABDEEE77AB8EEC77A77EEC77A8DED1F
:100EA000047A67EEA67AF5EE407AF1EE10FACDED0F
:100EB000057A40F09880B5EE407AF1EE10FA0CBF5A
:100EC00001230223604901910221009103A82946D0
:100ED00000F0CCF8002EC2DA95ED007AD5ED017A5B
:100EE000B1EE477AF1EE677A85ED007AC5ED017AC9
:100EF0004042B4E7002285ED000A42600020AEE7E0
:100F000070EE407AC0ED017AC0ED007AF6E700F0AD
:100F1000A5F89FED4E7A9FED456AF6EE007AE0EE79
:100F2000077A9FED457AFDEEE77A17EE900AF8EE24
:100F3000E76A1F28A6EEC60A66EE877AB1EE666AF1
:100F400020DC434A411E26F0004352F8212023F0C2
:100F5000FF03934216D030EE677A30EE470A002E38
:100F600030EE670A85ED007A85ED010ABFF677AFAE
:100F7000B1EE477AB1EE400A85ED007A85ED010ABF
:100F800040426CE730EE677AE21517EE103AC3F391
:100F9000C753C3EBD453082BDFDD9FED267A9FEDBB
:100FA000275AF0EE405AE6EE075A70EE657AE6EE02
:100FB000077AD6EE857A35EEE77A17EE103AC3F364
:100FC000C753D21A192A10DD9FED227A9FED225ABB
:100FD000B0EE650AA6EE070A75EEC07AE6EE077A6D
:100FE000D6EE857AB7E703236CE7B0EE650AB4E77F
:100FF0008A4270EE277A09BF9FED0E7ADFED0E6A06
:10100000DFED0E6A77EE877A37EEA67A77EEC77A4B
:1010100080ED007A77EEA67AC0ED017A4FF0FF30CE
:101020001DE700BFD80F493FE3CB1640800FC93FF3
:10103000D00FC93F004435374344353708A3852EC8
:10104000800F494300008043F057010884F9223F94
:101050007057010800A3852E32318D2410EE103A0E
:1010600023F0004300EE103A704700BF2DE9F04F27
:101070002DED048BDBB01C46944603930A46CD4B02
:1010800068991CF1040F53F82160824604F1FF387F
:10109000C0F24982BCF1030348BF0CF10403DB102A
:1010A000029301334FEAC30EACEB0E030593029B90
:1010B00016EB0800A3EB080316D401309FEDBE7AAF
:1010C000699C18441EA9002BA4BF54F8235007EEB6
:1010D000905A03F10103ACBFF8EEE77AF0EE477ADD
:1010E0008342E1EC017AEED1002EC0F2B182039B83
:1010F0001EA901EB830446AD4FEA83094046F71869
:101100000AEB8301B8F1000FDFEDAB7A09DBA346F0
:101110005346F3EC016A3BED017A8B42E6EE877AA7
:10112000F7D10130B842E5EC017A04F10404E9D1C9
:101130000DF1280B0BEB8603CDE9062E043B9FED4A
:10114000A09ADFED9E8A059804930AEB090446AF46
:101150000BEB86090096CDF820C05AAB03EB860353
:10116000002E13ED140A4FEA860515DD7B195A4649
:1011700060EE097AB0EE407AFDEEE77A73ED016A2F
:10118000F8EEE77ABB42A7EEE87A37EEA60ABDEEA4
:10119000C77AA2EC017AEBD1019000F089FAF4EE63
:1011A000007AB0EE408A20EE270A00F0F3FAF2EE61
:1011B000007AA0EE678A01980028FDEEC89AF8EE42
:1011C000E97A38EE678A6CDD06F1FF3EC0F108036C
:1011D0005BF82E2042FA03FC0CFA03F3D21AC0F19A
:1011E000070119EE903A4BF82E200A416344002A79
:1011F00009EE903A00F3F080B5EE408AF1EE10FA75
:1012000040F09D80009B9E420ADD5D44002355F81E
:10121000041D4D4543EA0103F9D1002B40F0F28053
:10122000009B013B5BF82330002B40F0E780049BE0
:10123000012153F8042D0131002AFAD0731C3144E6
:101240009C46029D039A05EB030E0EF1804E699DAC
:1012500032440EF1FF3E07EB83061EAB05EB8E0E0C
:1012600003EB8205DEED017AF8EEE77AB8F1000FC4
:101270000EF1040EE5EC017ADFED4F7A09DB2A4628
:101280005346F3EC016A32ED017AA342E6EE877A27
:10129000F7D10CF1010C6145E6EC017AE2DA0E4679
:1012A0005BE740F08F80731E5BF82320D211002A89
:1012B000A2DD19EE903A002E03F1010309EE903AF7
:1012C00040F3D48159464FF0000E51F8043B002BF7
:1012D0006AD0C3F5807341F8043C04E00B68C3F1A5
:1012E000FF0341F8043B0EF1010E7645F6DC0123C5
:1012F0009E4600280ADD012878D0022806D1711EFA
:101300005BF8213003F03F0C4BF821C0022A7FF438
:1013100073AFB7EE000A734630EE488A002B3FF4F5
:101320006BAF0992019000F0C3F938EE408A019842
:10133000099AB5EE408AF1EE10FA3FF463AF924697
:10134000DDE9062EDDF820C00196AEEB0C00B0EE14
:10135000480A009E009200F0ABF9DFED186AB4EE87
:10136000E60AF1EE10FADDE90023F0EE407AC0F271
:1013700050819FED137A059920EE077A0831BDEE72
:10138000C77A0591B8EEC77A5C1CE7EE667ABDEEC7
:10139000C77AFDEEE77A17EE901A4BF8231017EE96
:1013A000103A4BF8243046E00EF1010EB6458CDBC6
:1013B0009E469EE7085B0108000000000000804395
:1013C0000000803BF6EE007AB4EEE78AF1EE10FA08
:1013D00080F2988000220FE70133002E09EE903A48
:1013E0003FF770AF002301289E4686D1711E5BF83F
:1013F000213003F07F0C4BF821C087E7731C9C461B
:1014000019461EE733469246DDE905125C1EA1F13E
:1014100008005BF82410009E059061B903F1804339
:10142000013B0BEB8303014653F8040D013C0839E3
:101430000028F9D0059105980092B7EE000A00F057
:1014400037F9002C009AB0EE407AC0F20581601C9A
:1014500046AD5FED256A81000BEB800305EB800054
:1014600073ED017AF8EEE77A5B4567EE877A27EE4F
:10147000267A60ED017AF3D10DF1C8080B1F46A85A
:10148000C718C646A44600259146002E73DB844A41
:10149000DFED847A3846002301E0AB4208DCF2EC51
:1014A000016AB0EC017A01339E42E6EE877AF4DA03
:1014B0000CF1FF3CBCF1FF3FEEEC017A05F10105B8
:1014C000A7F10407E1D1689B022B4A4656DC002BAA
:1014D0002EDC0ED1DFED737A414431ED017A4145C6
:1014E00077EE877AF9D15346002B40F0AE80C2EDFB
:1014F000007A19EE903A03F007005BB0BDEC048B64
:10150000BDE8F08F19EE903A002E03F1010309EEC9
:10151000903AC8BF02223FF7D5AEF7EE007A37EE19
:10152000C88A022268E600234FF0080E0293BBE54A
:101530009FED5C7A414471ED017A414537EE277A9F
:10154000F9D1DDED327A534677EEC77A002B75D1AB
:1015500082ED007A64B133A90123B1EC017A013341
:101560009C4277EE877AF8DA53460BB1F1EE677A50
:10157000C2ED017ABDE7DFED4B7A99E7689B032B5B
:10158000B7D1002C7ED008EB840595ED007AA00041
:101590002B46294671ED017AF0EE476A37EE277A3D
:1015A000414577EEC77A81ED007A77EEA67AC1EDF4
:1015B000017AEFD1012C65D095ED007A08F1040194
:1015C00073ED017AF0EE476A37EE277A994277EEAB
:1015D000C77A83ED007A77EEA67AC3ED017AEFD170
:1015E000031DDFED307A434408F1080833ED017A3A
:1015F000984577EE877AF9D15346DDED326A9DED55
:10160000337A73B9C2ED006A82ED017AC2ED027AD3
:101610006FE7FDEEC07A1C4617EE901A4BF82310C8
:1016200009E7F1EE666AB1EE477AF1EE677AC2ED4C
:10163000006A82ED017AC2ED027A5AE7B1EE477A8A
:1016400082ED007A002C86D190E7F1EE677A4EE7C2
:10165000039B4FEA83096BE5689B022B0EDC002B92
:1016600013DC7FF446AFDFED0F7A3CE7022A7FF40C
:10167000C3ADF7EE007A37EEC88ABDE5689B032B51
:101680007FF437AFDFED077AB6E75346DDED327A08
:1016900013B9002313606BE74FF00043136065E755
:1016A000145B010800000000B1EEC00A704700BFE3
:1016B00010EE103A33F000411A4627D0B1F1FF4F37
:1016C00021D213F0FF4F22D1DFED2B7A2B4A60EEAF
:1016D000277A904217EE903A33DB4CF2503CC3F33A
:1016E000C75160451A46A1F1190116DDDFED247AD4
:1016F000DFED246A002BB0EE677AB8BFF0EE667AB1
:1017000027EE870A704730EE000A704770474CF2A8
:10171000503C60454FEAD151E8DC0144FE29E5DC4C
:10172000002915DC11F1160F19DB193122F0FF42E7
:1017300042EAC15207EE902A9FED130A27EE800A73
:101740007047DFED127A07EE103A27EE270A70474E
:1017500022F0FF4242EAC15300EE103A7047DFED3B
:101760000B7ADFED0B6A002BB0EE677AB8BFF0EEB4
:10177000667A27EE870A70470000004CB03CFFFFF6
:10178000CAF24971CAF249F1000000336042A20D69
:101790006042A28D10EE102AC2F3C7537F3B162B76
:1017A00022F0004129DC002B104618DB1A491941B0
:1017B0000A4221D0DFED197A70EE277AF5EEC07A71
:1017C000F1EE10FA18DD002A04DA4FF4000242FAB2
:1017D00003F3184420EA010300EE103A7047DFEDEE
:1017E0000F7A70EE277AF5EEC07AF1EE10FA03DD8B
:1017F000002A08DB9FED0A0A7047B1F1FF4FFBD3C7
:1018000030EE000A7047DFED077A0029BFEE000ACC
:1018100008BFB0EE670A7047FFFF7F00CAF2497148
:10182000000000000000008080F0004002E000BFE7
:1018300081F0004142001FBF5FEA410392EA030FBB
:101840007FEA226C7FEA236C6AD04FEA1262D2EB05
:101850001363C1BFD218414048404140B8BF5B420A
:10186000192B88BF704710F0004F40F4000020F0A3
:101870007F4018BF404211F0004F41F4000121F0B9
:101880007F4118BF494292EA030F3FD0A2F1010203
:1018900041FA03FC10EB0C00C3F1200301FA03F141
:1018A00000F0004302D5494260EB4000B0F5000F64
:1018B00013D3B0F1807F06D340084FEA310102F123
:1018C0000102FE2A51D2B1F1004F40EBC25008BFD5
:1018D00020F0010040EA03007047490040EB00009F
:1018E000013A28BFB0F5000FEDD2B0FA80FCACF1A0
:1018F000080CB2EB0C0200FA0CF0AABF00EBC250CD
:1019000052421843BCBFD0401843704792F0000FBA
:1019100081F4000106BF80F400000132013BB5E70D
:101920004FEA41037FEA226C18BF7FEA236C21D083
:1019300092EA030F04D092F0000F08BF08467047E8
:1019400090EA010F1CBF0020704712F07F4F04D1B6
:10195000400028BF40F00040704712F100723CBFC9
:1019600000F50000704700F0004343F0FE4040F4F3
:10197000000070477FEA226216BF08467FEA2363B1
:101980000146420206BF5FEA412390EA010F40F49C
:10199000800070474FF0000304E000BF10F00043E8
:1019A00048BF40425FEA000C08BF704743F09643CF
:1019B00001464FF000001CE050EA010208BF7047EA
:1019C0004FF000030AE000BF50EA010208BF704771
:1019D00011F0004302D5404261EB41015FEA010C86
:1019E00002BF84460146002043F0B64308BFA3F17E
:1019F0008053A3F50003BCFA8CF2083AA3EBC25360
:101A000010DB01FA02FC634400FA02FCC2F120027E
:101A1000BCF1004F20FA02F243EB020008BF20F0B5
:101A20000100704702F1200201FA02FCC2F120021B
:101A300050EA4C0021FA02F243EB020008BF20EA10
:101A4000DC70704753B94AB9002908BF00281CBF91
:101A50004FF0FF314FF0FF3000F06AB9ADF1080CE4
:101A60006DE904CE00F006F8DDF804E0DDE90223BC
:101A700004B070472DE9F047089D0E4604460F4616
:101A8000002B4AD194468C45B2FA82F260D942B119
:101A9000C2F12003974020FA03F30CFA02FC1F4323
:101AA00094404FEA1C4E1FFA8CF6B7FBFEF1230C54
:101AB0000EFB117743EA074301FB06F098420AD96F
:101AC0001CEB030301F1FF3780F01581984240F2CF
:101AD0001281023963441B1AA4B2B3FBFEF00EFB61
:101AE000103344EA034400FB06F6A6420AD91CEB75
:101AF000040400F1FF3380F00081A64240F2FD8033
:101B00006444023840EA0140A41B00211DB1D440C6
:101B10000023C5E90043BDE8F0878B4205D90DB12C
:101B2000C5E9000100210846F5E7B3FA83F1002971
:101B300046D1B34202D3824200F2F580841A66EBAA
:101B4000030201201746002DE5D0C5E90047E2E772
:101B5000002A40F09380A1EB0C034FEA1C471FFAC8
:101B60008CFE0121B3FBF7F607FB1630230C43EA8A
:101B700000430EFB06F0984208D91CEB030306F164
:101B8000FF3802D2984200F2D08046461B1AA4B217
:101B9000B3FBF7F007FB103344EA03440EFB00FEEF
:101BA000A64508D91CEB040400F1FF3302D2A64578
:101BB00000F2B6801846A4EB0E0440EA0640A5E702
:101BC000C1F120078B4022FA07FC4CEA030C06FA0D
:101BD00001FE20FA07F426FA07F344EA0E0400FA9D
:101BE00001F84FEA1C404FEA1449B3FBF0FE1FFA1C
:101BF0008CF600FB1E3349EA03430EFB06F99945B8
:101C000002FA01F20BD91CEB03030EF1FF3A80F04C
:101C10008580994540F28280AEF1020E6344A3EBC9
:101C20000909A4B2B9FBF0F300FB139944EA094493
:101C300003FB06F6A64208D91CEB040403F1FF30AF
:101C400068D2A64266D9023B644443EA0E40A41B14
:101C5000A0FB02E6B4427346B14652D34FD05DB109
:101C6000B8EB030264EB090404FA07F722FA01F364
:101C70001F43CC40C5E9007400214CE7C2F12001AC
:101C800020FA01F30CFA02FC26FA01F196403343E4
:101C90004FEA1C471FFA8CFEB1FBF7F007FB10164A
:101CA000190C41EA064100FB0EF68E4204FA02F4DA
:101CB00008D91CEB010100F1FF382DD28E422BD93F
:101CC00002386144891B9BB2B1FBF7F607FB161182
:101CD00043EA014306FB0EF1994208D91CEB0303CA
:101CE00006F1FF3814D2994212D9023E63445B1ABE
:101CF00046EA004136E73946EDE6184602E7F04588
:101D0000ADD2BEEB020366EB0C060138B146A6E786
:101D10004646ECE7034698E74046D3E7D6467EE7DB
:101D20006444023847E708460DE7023E63442DE766
:101D3000704700BF70B50F4B0F4DAB42A3EB0506CC
:101D400007D0B610002455F8043B01349847A6424A
:101D5000F9D813F073FC094D094B5E1BAB424FEAF7
:101D6000A60606D0002455F8043B01349847A64245
:101D7000F9D870BDE85B0108E85B0108E85B010881
:101D8000085C0108830730B547D0541E002A3ED0B6
:101D9000CAB2034601E0013C39D303F8012B9D0789
:101DA000F9D1032C2CD9CDB205EB05250F2C05EB71
:101DB000054535D9A4F1100222F00F0C03F1100EE5
:101DC000E6444FEA121C1A46C2E90055C2E9025520
:101DD00010327245F8D10CF1010214F00C0F03EB34
:101DE000021204F00F0C13D0ACF1040323F0030330
:101DF0000433134442F8045B9342FBD10CF0030418
:101E00002CB1C9B21C4403F8011BA342FBD130BD65
:101E100064461346002CF4D1F9E703461446C0E7A4
:101E20001A46A446E0E700BF014B1868704700BFA0
:101E300000000024844641EA000313F003036DD13F
:101E4000403A41D351F8043B40F8043B51F8043B7D
:101E500040F8043B51F8043B40F8043B51F8043B84
:101E600040F8043B51F8043B40F8043B51F8043B74
:101E700040F8043B51F8043B40F8043B51F8043B64
:101E800040F8043B51F8043B40F8043B51F8043B54
:101E900040F8043B51F8043B40F8043B51F8043B44
:101EA00040F8043B51F8043B40F8043B51F8043B34
:101EB00040F8043B51F8043B40F8043B51F8043B24
:101EC00040F8043B403ABDD2303211D351F8043BC4
:101ED00040F8043B51F8043B40F8043B51F8043B04
:101EE00040F8043B51F8043B40F8043B103AEDD273
:101EF0000C3205D351F8043B40F8043B043AF9D2C4
:101F0000043208D0D2071CBF11F8013B00F8013B96
:101F100001D30B8803806046704700BF082A13D3A3
:101F20008B078DD010F003038AD0C3F10403D21ABB
:101F3000DB071CBF11F8013B00F8013B80D331F8EF
:101F4000023B20F8023B7BE7043AD9D3013A11F86F
:101F5000013B00F8013BF9D20B7803704B784370DA
:101F60008B7883706046704710B58CB0002409945C
:101F70000A940B94242221466846FFF703FF204869
:101F8000204B03604FF420134360846004610423FA
:101F90004361047601234376C36180F82040846264
:101FA000C46203220263C463046480F8444083640F
:101FB00002F0FCFFD8B90023099309A9104803F0E7
:101FC000B1F9B8B9104B009306230193042302938F
:101FD00040F2FF7203920493002305938DF82130A1
:101FE0006946074802F002FB38B90CB010BD00F09A
:101FF00097FBE0E700F094FBE4E700F091FBF4E7E7
:1020000058030024002002401000C01030B5B7B0C3
:102010000446002131913291339134913591B822A7
:1020200002A8FFF7AFFE22682B4B9A4201D037B0CF
:1020300030BD4FF400220023CDE902234FF40033DA
:102040002A9302A808F09EFB00283ED1234BD3F828
:10205000D82042F02002C3F8D820D3F8D82002F0CC
:1020600020020092009AD3F8E02042F00402C3F864
:10207000E020D3F8E03003F004030193019B102328
:102080003193032332930025339531A9144805F089
:102090004FFB1448144B0360092343608560C560FF
:1020A0004FF4806303614FF4006343614FF40053C6
:1020B00083614FF48073C3610562456203F07CFC69
:1020C00030B9084BA3659C63B1E700F029FBBDE77D
:1020D00000F026FBF5E700BF002002400044025854
:1020E00000080258E00200248804024008B50548B0
:1020F000054B036003F0BEF900B908BD00F010FB0A
:10210000FBE700BFC80300240044024802680A4BF2
:102110009A4200D0704782B003F18053D3F8DC209C
:1021200042F40032C3F8DC20D3F8DC3003F400338F
:102130000193019B02B070470044024800B583B090
:10214000454BD3F8D82042F00102C3F8D820D3F889
:10215000D82002F001020092009AD3F8D82042F071
:102160000202C3F8D820D3F8D83003F00203019359
:10217000019B002211460B2003F0E6F90B2003F02F
:10218000F3F9002211460C2003F0DEF90C2003F0D5
:10219000EBF9002211460D2003F0D6F90D2003F0D3
:1021A000E3F9002211460E2003F0CEF90E2003F0D1
:1021B000DBF9002211460F2003F0C6F90F2003F0CF
:1021C000D3F900221146102003F0BEF9102003F0CD
:1021D000CBF900221146112003F0B6F9112003F0CB
:1021E000C3F9002211462F2003F0AEF92F2003F08F
:1021F000BBF900221146382003F0A6F9382003F07D
:10220000B3F900221146392003F09EF9392003F07A
:10221000ABF9002211463A2003F096F93A2003F078
:10222000A3F9002211463B2003F08EF93B2003F076
:102230009BF9002211463C2003F086F93C2003F074
:1022400093F900221146442003F07EF9442003F064
:102250008BF903B05DF804FB0044025838B516480A
:10226000164B036000238360C36001210174437433
:102270008374032545610A2282611D24C4610262C0
:1022800045628262C462026343638163C363102256
:102290000264042242648364C26403654265836508
:1022A000C365082101664366826604F0FFFD00B93C
:1022B00038BD00F035FAFBE73405002400A00040EB
:1022C00038B51748174B036000238360C3600121B2
:1022D000017443748374032545610A2282611D24BD
:1022E000C461026245628262C462026340F2553296
:1022F00042638163C36310220264042242648364E4
:10230000C264036542658365C3650821016643664F
:10231000826604F0CBFD00B938BD00F001FAFBE79E
:102320009404002400A4004038B51748174B0360FC
:1023300000238360C3600121017443748374032507
:1023400045610A2282611D24C46102624562826283
:10235000C462026340F2AA6242638163C3631022D3
:102360000264042242648364C26403654265836537
:10237000C365082101664366826604F097FD00B9D3
:1023800038BD00F0CDF9FBE7F403002400D4004091
:1023900010B5BAB004460021359136913791389185
:1023A0003991B82206A8FFF7EDFC23687B4A9342D7
:1023B00008D07B4A934253D07A4A934200F09E80E1
:1023C0003AB010BD4FF400420023CDE906234FF090
:1023D0008053219306A808F0D5F980BB724A136890
:1023E00001331360012B2DD0704BD3F8E02042F065
:1023F0000802C3F8E020D3F8E03003F008030193AB
:10240000019B032335930223369300243794389499
:102410000923399335A9664805F08AF922462146F1
:10242000132003F091F8132003F09EF82246214672
:10243000152003F089F8152003F096F8C0E700F0A6
:102440006FF9CBE7594BD3F8EC2042F48072C3F814
:10245000EC20D3F8EC3003F480730093009BC3E7C7
:102460004FF400420023CDE906234FF0805321931F
:1024700006A808F087F980BB4B4A13680133136044
:10248000012B2DD0494BD3F8E02042F00202C3F8D3
:10249000E020D3F8E03003F002030393039B6023B2
:1024A00035930223369300243794389409233993C3
:1024B00035A9404805F03CF922462146142003F096
:1024C00043F8142003F050F822462146162003F06A
:1024D0003BF8162003F048F872E700F021F9CBE74B
:1024E000324BD3F8EC2042F48072C3F8EC20D3F8DE
:1024F000EC3003F480730293029BC3E74FF4004275
:102500000023CDE906234FF08053219306A808F05D
:1025100039F988BB244A136801331360012B2ED08C
:10252000224BD3F8E02042F00802C3F8E020D3F8B1
:10253000E03003F008030593059B4FF440533593B7
:10254000022336930024379438940523399335A910
:10255000174805F0EDF8224621469F2002F0F4FFCF
:102560009F2003F001F822462146A02002F0ECFF54
:10257000A02002F0F9FF23E700F0D2F8CAE70B4BE6
:10258000D3F8EC2042F48072C3F8EC20D3F8EC309E
:1025900003F480730493049BC2E700BF00A00040D3
:1025A00000A4004000D40040F0030024004402587E
:1025B000000C02580004025870B58CB00024079437
:1025C000089409940A940B94464BD3F8E02042F007
:1025D0001002C3F8E020D3F8E02002F010020192CC
:1025E000019AD3F8E02042F00402C3F8E020D3F8C7
:1025F000E02002F004020292029AD3F8E02042F0B6
:102600008002C3F8E020D3F8E02002F080020392B9
:10261000039AD3F8E02042F00102C3F8E020D3F897
:10262000E02002F001020492049AD3F8E02042F084
:102630000202C3F8E020D3F8E02002F00202059283
:10264000059AD3F8E02042F00802C3F8E020D3F85E
:10265000E03003F008030693069B234D22464FF417
:102660006041284605F075F901220921284605F048
:1026700070F94FF4604307930126089609940A9471
:1026800007A9284605F054F80923079308960994EA
:1026900003230A9307A9284605F04AF84FF4A053EC
:1026A00007934FF488130893099407A90F4805F07E
:1026B0003FF84FF4004307930894099407A90C4886
:1026C00005F036F821464FF0006001F07DFE22460D
:1026D0002146282002F038FF282002F045FF0CB0E8
:1026E00070BD00BF00440258000802580010025894
:1026F0000000025808B50848084B036006234360F1
:1027000040F2FF33C360836005F038F900B908BDBB
:1027100000F006F8FBE700BFD4050024004800588D
:1027200072B6FEE700B59DB04C22002109A8FFF764
:1027300029FB2022002101A8FFF724FB022007F03B
:1027400069F900230093224B9A6922F440429A616E
:102750009B6903F440430093009B1D4B9B6913F45A
:10276000005FFAD0292309934FF480330A930122A2
:102770000E920F9202231293139314932821159112
:1027800016920422179218930C23199300231A937C
:102790001B9309A807F070F9A8B93F2301930321FF
:1027A0000291002303930823049340230593069387
:1027B0004FF480620792089301A807F04BFD20B9FF
:1027C0001DB05DF804FBFFF7ABFFFFF7A9FF00BFEB
:1027D0000048025800B5AFB0B82200216846FFF7A4
:1027E000D1FA4FF000420023CDE900234FF000530F
:1027F0001593684607F0C6FF10B92FB05DF804FBCB
:10280000FFF78EFF08B52E4B5B6913F4003F13D121
:10281000BFF34F8FBFF36F8F294B0022C3F85022B5
:10282000BFF34F8FBFF36F8F5A6942F400325A6182
:10283000BFF34F8FBFF36F8F01F072FDFFF772FF91
:10284000FFF7C8FFFFF7B8FEFFF778FC00F03AF893
:102850000DF08CFFFFF788FBFFF700FDFFF730FD61
:10286000FFF762FD01F0D2F801F004F901F03AF946
:1028700001F05CF801F096F801F06CF900F07AF9DB
:1028800000F0AAF9FFF736FF00F0FAFE00F072FF41
:1028900000F0C4FF00F0C8FC00F000FD01F000F8FB
:1028A00000F026FD00F04CFDFFF720FC00F026F8BC
:1028B00000F082FC12F05AFC12F0EAFCFCE700BFC8
:1028C00000ED00E000B583B00B4BD3F8D42042F00C
:1028D0000102C3F8D420D3F8D43003F001030193EC
:1028E000019B002211467A2002F02EFE7A2002F08F
:1028F0003BFE03B05DF804FB0044025800B587B00E
:1029000000230093019302930393049305931848C3
:10291000184A0260012242608360C360172101618E
:1029200042618361C2610362022242624FF08042CF
:102930008262C3620363082242638363C36305F058
:10294000F3FE78B90123009302934FF00113039330
:1029500041F288326946064805F06AFF28B907B097
:102960005DF804FBFFF7DCFEECE7FFF7D9FEF6E7C6
:102970005006002400A000522DE9F04FBBB00446E1
:10298000002135913691379138913991B82206A8B6
:10299000FFF7F8F922686F4B9A4202D03BB0BDE8CE
:1029A000F08F4FF000720023CDE9062306A807F050
:1029B000E9FE002840F0C480674BD3F8D42042F4ED
:1029C0000012C3F8D420D3F8D42002F400120092ED
:1029D000009AD3F8D42042F40022C3F8D420D3F8CC
:1029E000D42002F400220192019AD3F8E02042F0B0
:1029F0000102C3F8E020D3F8E02002F001020292C5
:102A0000029AD3F8E02042F00202C3F8E020D3F8A3
:102A1000E02002F002020392039AD3F8E02042F091
:102A20001002C3F8E020D3F8E02002F01002049274
:102A3000049AD3F8E02042F00802C3F8E020D3F86B
:102A4000E03003F008030593059B02263596369681
:102A500000253795032738974FF00908CDF8E48013
:102A6000DFF80C9135A9484604F062FE4FF0080AE1
:102A7000CDF8D4A03696379538970623399335A9E3
:102A8000484604F055FE4FF00109CDF8D490369633
:102A9000379538974FF0040BCDF8E4B035A92F489F
:102AA00004F046FECDF8D4B0369637953897CDF879
:102AB000E48035A9294804F03BFE4FF4006BCDF8C3
:102AC000D4B03696379538970B23399335A92448D7
:102AD00004F02EFECDF8D4B0369637953897CDF861
:102AE000E48035A91F4804F023FE1F481F4B0360F4
:102AF000202343608560C56005614661C0F818A069
:102B0000C56105624FF000734362C0F82890C5624A
:102B100005634563856305F011F8A0B900221146ED
:102B2000114805F03BF888B90F4BE3641C640022A0
:102B30001146962002F008FD962002F015FD2DE7C3
:102B4000FFF7EEFD38E7FFF7EBFDE7E7FFF7E8FDFE
:102B5000EAE700BF00A000520044025800040258F7
:102B600000100258000C0258E405002440000052F6
:102B70000000025808B51648164B03604FF4800356
:102B80004360002383600722C2604FF0007202613D
:102B90004FF0807242614FF0806282614FF00052CC
:102BA000C261036243628362C3624FF08042426348
:102BB0008363C363036443648364C36403654365DD
:102BC000836509F09FF900B908BDFFF7A9FDFBE790
:102BD000240800240038004008B51548154B036050
:102BE0004FF4800343604FF4003383600723C360D6
:102BF0000023036143614FF0806282614FF0005215
:102C0000C261036243628362C3624FF080424263E7
:102C10008363C363036443648364C364036543657C
:102C2000836509F06FF900B908BDFFF779FDFBE78F
:102C30009C070024001400582DE9F041BAB0044666
:102C4000002135913691379138913991B82206A8F3
:102C5000FFF798F82368734A934206D0724A93426A
:102C600000F09E803AB0BDE8F0814FF4805200231E
:102C7000CDE9062318231093A02311930223129366
:102C8000139314934FF4007316934FF400531D9352
:102C900006A807F077FD002879D1644BD3F8E82027
:102CA00042F48042C3F8E820D3F8E82002F48042DE
:102CB0000192019AD3F8E02042F00402C3F8E02028
:102CC000D3F8E02002F004020292029AD3F8E02046
:102CD00042F00202C3F8E020D3F8E03003F0020330
:102CE0000393039B062335934FF00208CDF8D88059
:102CF00000253795032638960527399735A94C487E
:102D000004F016FD4FF400533593CDF8D880379575
:102D10003896399735A9474804F00AFD4648474B8D
:102D20000360272343608560C5604FF480630361BF
:102D300045618561C5610562042343628662C5629F
:102D4000056302F039FE28BB3B4BE3679C633C48BC
:102D50003C4B036028234360402383600023C3600F
:102D60004FF48062026143618361C3610362436225
:102D700002F022FE88B9324BA3679C630022114601
:102D8000242002F0E1FB242002F0EEFB6AE7FFF7CB
:102D9000C7FC82E7FFF7C4FCD6E7FFF7C1FCEAE710
:102DA0004FF480420023CDE906230C2308936423CB
:102DB000099302230A9304220B920C9340230D9350
:102DC0004FF08053319306A807F0DCFC38BB174B5B
:102DD000D3F8F42042F02002C3F8F420D3F8F42012
:102DE00002F020020492049AD3F8E02042F001029B
:102DF000C3F8E020D3F8E03003F001030593059B0E
:102E0000A02335930223369300233793032338936B
:102E10000823399335A90C4804F08AFC22E7FFF710
:102E20007FFCD4E7003800400014005800440258EA
:102E300000080258000402582407002458040240E5
:102E4000AC060024700402400000025882B0074B18
:102E5000D3F8F42042F00202C3F8F420D3F8F4309F
:102E600003F002030193019B02B070470044025833
:102E7000FEE7FEE7FEE7FEE7FEE7704770477047B4
:102E800008B501F07BFA08BD08B5024803F086FBDF
:102E900008BD00BF380D002408B5024803F07EFBD2
:102EA00008BD00BFB00D002408B5024803F076FB52
:102EB00008BD00BFC00C002408B5024803F06EFB3B
:102EC00008BD00BF480C002408B5024803F066FBAB
:102ED00008BD00BF0810002408B5024803F05EFBDF
:102EE00008BD00BFA00E002408B5024803F056FB41
:102EF00008BD00BF280E002408B5024804F088FA77
:102F000008BD00BF3405002408B5024804F080FA6B
:102F100008BD00BF9404002408B5024804F078FA04
:102F200008BD00BF3405002408B5024804F070FA5B
:102F300008BD00BF9404002408B502480AF0AEF9A9
:102F400008BD00BF280A002408B5024809F0B6FEF3
:102F500008BD00BF2408002408B502480AF0E6FEB8
:102F600008BD00BF3C12002408B502480AF0DEFE8E
:102F700008BD00BFA811002408B502480AF0D6FE1B
:102F800008BD00BF1411002408B54FF4806004F0A0
:102F9000E6FC4FF4805004F0E2FC08BD08B502489E
:102FA0000AF07CF908BD00BFF808002408B5024803
:102FB00003F0F4FA08BD00BF900F002408B50248E2
:102FC0000AF06CF908BD00BFDC09002408B502480E
:102FD0000AF0ACFE08BD00BF6413002408B5024827
:102FE0000AF05CF908BD00BF9009002408B502484A
:102FF0000AF054F908BD00BF4409002408B502488E
:1030000003F0CCFA08BD00BF180F002408B5024831
:1030100003F0C4FA08BD00BFD00B002408B5024875
:1030200003F0BCFA08BD00BF580B002408B50248E5
:1030300003F0B4FA08BD00BF2407002408B5024815
:1030400003F0ACFA08BD00BFAC06002408B5024886
:1030500003F0A4FA08BD00BFE002002408B502484E
:1030600006F098F908BD00BFF018002408B5024822
:103070000AF05CFE08BD00BFD012002408B502486B
:1030800004F02CFE08BD00BFE405002408B502488A
:1030900005F078FA08BD00BF5006002408B50248C4
:1030A0000AF044FE08BD00BF8010002408B50248A5
:1030B00004F0AEF908BD00BFF403002408B50248CF
:1030C00004F0A6F908BD00BFF40300242B4AD2F88F
:1030D000883043F47003C2F88830294B1B6803F032
:1030E0000F03062B06D8264A136823F00F0343F07C
:1030F00007031360234B1A6842F001021A60002292
:103100001A611968204A0A401A601D4B1B6813F0A7
:10311000080F06D01A4A136823F00F0343F0070381
:103120001360184B00229A61DA611A62174999629A
:103130001749D962174919635A639963DA631964A5
:103140005A64196821F4802119601A66D3F8D430C2
:1031500013F4805F10D10B4BD3F8D42042F480528B
:10316000C3F8D4200C4A43F2D2011160D3F8D42022
:1031700022F48052C3F8D420704700BF00ED00E075
:1031800000200052004402587FEDF6EA00020202DD
:103190000000FF018002010100400052054AD3688F
:1031A00043F00203D360034B5B6813F4005FFAD073
:1031B000704700BF0048025800B589B0002304934F
:1031C0000593069307930193029303931448154ABA
:1031D0000260EF22426083600922C2600361836162
:1031E0000AF0AAF990B94FF48053049304A90C484B
:1031F0000AF0F6FA68B900230193039301A908487D
:103200000AF05AFC40B909B05DF804FBFFF788FAF0
:10321000E9E7FFF785FAEEE7FFF782FAF3E700BF89
:10322000280A00240008004000B589B00023049358
:103230000593069307930193029303931448154A49
:103240000260EF2242608360134AC26003618361BF
:103250000AF072F990B94FF48053049304A90C4812
:103260000AF0BEFA68B900230193039301A9084844
:103270000AF022FC40B909B05DF804FBFFF750FAF0
:10328000E9E7FFF74DFAEEE7FFF74AFAF3E700BF89
:10329000DC090024000C0040FFA393D600B585B0E4
:1032A00000230193029303930F48104A026045F6EE
:1032B000BF524260836042F20F72C26083610AF0C3
:1032C0003BF950B900230193039301A906480AF082
:1032D000F3FB28B905B05DF804FBFFF721FAF1E72D
:1032E000FFF71EFAF6E700BF900900240010004027
:1032F00000B585B000230193029303930E480F4A53
:103300000260EF224260836040F2E732C260836174
:103310000AF012F950B900230193039301A906485A
:103320000AF0CAFB28B905B05DF804FBFFF7F8F90D
:10333000F1E7FFF7F5F9F6E744090024001400402F
:1033400000B589B000230493059306930793019376
:10335000029303931548164A0260EF22426083608D
:103360007C22C2600361436183610AF0E5F898B989
:103370004FF48053049304A90C480AF031FA70B951
:10338000002301930293039301A908480AF094FBD8
:1033900040B909B05DF804FBFFF7C2F9E8E7FFF7B1
:1033A000BFF9EDE7FFF7BCF9F3E700BFF808002429
:1033B0000004014084B00368224A934216D0B3F15E
:1033C000804F22D0204A93422DD0204A93421AD1D6
:1033D0001F4BD3F8E82042F04002C3F8E820D3F8AE
:1033E000E83003F040030393039B0CE0184BD3F841
:1033F000F02042F00102C3F8F020D3F8F03003F0DF
:1034000001030093009B04B07047114BD3F8E820F0
:1034100042F00102C3F8E820D3F8E83003F00103DA
:103420000193019BEFE70A4BD3F8E82042F0020238
:10343000C3F8E820D3F8E83003F002030293029BBC
:10344000E1E700BF00000140000400400018004018
:103450000044025800B587B00368404A93420ED03A
:103460003F4A934221D03F4A934234D03E4A93424E
:1034700047D03E4A93425AD007B05DF804FB3C4B1C
:10348000D3F8E82042F00402C3F8E820D3F8E8308B
:1034900003F004030193019B002205211E2002F08A
:1034A00053F81E2002F060F8E6E7314BD3F8E8202D
:1034B00042F00802C3F8E820D3F8E83003F008032C
:1034C0000293029B00220521322002F03DF83220B7
:1034D00002F04AF8D0E7264BD3F8E82042F0100279
:1034E000C3F8E820D3F8E83003F010030393039BFC
:1034F00000220521362002F027F8362002F034F8A9
:10350000BAE71B4BD3F8E82042F02002C3F8E820CA
:10351000D3F8E83003F020030493049B0022052134
:10352000372002F011F8372002F01EF8A4E7104B04
:10353000D3F8F02042F00202C3F8F020D3F8F030C4
:1035400003F002030593059B002205212C2001F0C6
:10355000FBFF2C2002F008F88EE700BF00080040B7
:10356000000C004000100040001400400004014026
:103570000044025800B58BB00023059306930793CF
:10358000089309930368374A93420BD0B3F1804FF5
:1035900021D0354A934236D0344A934249D00BB0B9
:1035A0005DF804FB324BD3F8E02042F01002C3F880
:1035B000E020D3F8E03003F010030193019B4FF4B7
:1035C00008530593022306930123099305A929486B
:1035D00004F0AEF8E3E7264BD3F8E02042F0010216
:1035E000C3F8E020D3F8E03003F001030293029B1C
:1035F00005230593022306930123099305A91E4879
:1036000004F096F8CBE71A4BD3F8E02042F0020220
:10361000C3F8E020D3F8E03003F002030393039BE8
:10362000022305930693099305A9144804F080F832
:10363000B5E70F4BD3F8E02042F00202C3F8E020D8
:10364000D3F8E03003F002030493049B4FF40043EB
:10365000059302230693099305A9084804F068F826
:103660009DE700BF0000014000040040001800403A
:10367000004402580010025800000258000402588A
:1036800010B598B000241594169417940E940F94C6
:10369000109411941294139414943422214601A886
:1036A000FEF770FB3148324B0360EF2343608460C8
:1036B00042F20F73C360046144618023836109F0A7
:1036C0006BFF002842D1002315931693179315A979
:1036D00026480AF0F1F900283BD160230E9300221E
:1036E0000F92109211921292139214920EA91F48E7
:1036F00009F0CCFF00282FD11C480268936923F001
:103700000803936108220EA909F0C0FF38BB1748CF
:103710000268D36923F00803D36100230193029365
:103720000393049305934FF4005206920793099371
:103730004FF000720A920B930D9301A90AF014FA4C
:1037400080B90A48FFF716FF18B010BDFEF7E8FF72
:10375000B9E7FEF7E5FFC0E7FEF7E2FFCCE7FEF7CB
:10376000DFFFD4E7FEF7DCFFEBE700BF0C0B002424
:103770000000014000B58BB0002307930893099324
:1037800000930193029303930493059306932248B5
:103790004FF080420260EF224260836042F20F727B
:1037A000C26003618023836109F0F6FE40BB002301
:1037B0000793099307A918480AF07EF918BB6023FC
:1037C000009300220192029204926946124809F085
:1037D0005DFFD8B910480268936923F0080393612C
:1037E0000822694609F052FF98B90B480268D3696C
:1037F00023F00803D361FFF7BDFE0BB05DF804FBB7
:10380000FEF78EFFD3E7FEF78BFFD8E7FEF788FFC2
:10381000E0E7FEF785FFE8E7C00A002400B58BB0BB
:103820000023079308930993009301930293039352
:103830000493059306931848184A0260EF224260E9
:10384000836042F20F72C2600361836109F0A4FEDB
:10385000C8B900230793099307A90F480AF02CF968
:10386000A0B96023009300230193029304930C22D8
:103870006946094809F00AFF58B90748FFF77AFE78
:103880000BB05DF804FBFEF74BFFE2E7FEF748FFE5
:10389000E7E7FEF745FFF0E7740A00240004004064
:1038A00000B58BB00023079308930993009301930D
:1038B000029303930493059306931A481A4A0260ED
:1038C000EF2242608360F922C2600361836109F0E4
:1038D00063FEF0B900230793099307A911480AF082
:1038E000EBF8C8B96023009300230193029304937B
:1038F000042269460B4809F0C9FE80B909480268EC
:10390000936923F400639361FFF734FE0BB05DF815
:1039100004FBFEF705FFDDE7FEF702FFE2E7FEF737
:10392000FFFEEBE7AC0800240018004008B51A4879
:103930001A4B03601A4B43604FF4805383604FF47B
:103940000053C3604FF48063036104234361002389
:103950008361C3610362436283620BF0A6F870B9AE
:1039600000210D480BF0B5F960B900210A480BF0B1
:10397000D5F950B908480BF08DF948B908BDFEF7E4
:10398000CFFEEDE7FEF7CCFEEFE7FEF7C9FEF1E76D
:10399000FEF7C6FEF2E700BF6413002400500040AB
:1039A000A086010008B51748174B03604FF4E133B8
:1039B000436000238360C36003610C224261836122
:1039C000C3610362436283620BF06FF870B9002138
:1039D0000C480BF07EF960B900210A480BF09EF903
:1039E00050B908480BF056F948B908BDFEF798FEE3
:1039F000EDE7FEF795FEEFE7FEF792FEF1E7FEF743
:103A00008FFEF2E7D01200240078004008B5174876
:103A1000174B03604FF4E133436000238360C360BE
:103A200003610C2242618361C3610362436283626A
:103A30000BF03BF870B900210C480BF04AF960B963
:103A400000210A480BF06AF950B908480BF022F936
:103A500048B908BDFEF764FEEDE7FEF761FEEFE74B
:103A6000FEF75EFEF1E7FEF75BFEF2E73C12002494
:103A70000010014008B51848184B0360184B43600C
:103A800000218160C16001610C2343618161C161DA
:103A90000162416281620B460A460BF0B7F870B9C9
:103AA00000210D480BF015F960B900210A480BF010
:103AB00035F950B908480BF0EDF848B908BDFEF7E4
:103AC0002FFEEDE7FEF72CFEEFE7FEF729FEF1E70C
:103AD000FEF726FEF2E700BFA811002400440040D4
:103AE00040420F0008B51848184B0360184B43605C
:103AF00000218160C16001610C2343618161C1616A
:103B00000162416281620B460A460BF07FF870B990
:103B100000210D480BF0DDF860B900210A480BF0D8
:103B2000FDF850B908480BF0B5F848B908BDFEF7E4
:103B3000F7FDEDE7FEF7F4FDEFE7FEF7F1FDF1E746
:103B4000FEF7EEFDF2E700BF14110024004800402C
:103B500040420F0008B51748174B03604FF4E1339C
:103B6000436000238360C36003610C224261836170
:103B7000C3610362436283620AF097FF70B9002158
:103B80000C480BF0A6F860B900210A480BF0C6F803
:103B900050B908480BF07EF848B908BDFEF7C0FDE3
:103BA000EDE7FEF7BDFDEFE7FEF7BAFDF1E7FEF743
:103BB000B7FDF2E780100024001C01402DE9F04120
:103BC000C2B0044600213D913E913F914091419108
:103BD000B8220EA8FEF7D6F82368824A934216D080
:103BE000814A934200F08580804A934200F01A8116
:103BF0007F4A934200F08F817E4A934200F01A82FE
:103C00007D4A934200F0A68242B0BDE8F0810222D4
:103C10000023CDE90E230EA806F0B4FD002862D1E2
:103C2000764BD3F8E82042F48012C3F8E820D3F8AA
:103C3000E82002F480120092009AD3F8E02042F0CB
:103C40000402C3F8E020D3F8E02002F0040201925D
:103C5000019AD3F8E02042F00802C3F8E020D3F83C
:103C6000E03003F008030293029B4FF480533D932E
:103C70004FF00208CDF8F88000253F9540950827C1
:103C800041973DA95E4803F053FD04263D96CDF8CB
:103C9000F8803F95409541973DA95A4803F048FD6B
:103CA00059485A4B0360412343608560C5604FF417
:103CB0008063036145618561C561056246620323D6
:103CC0008362C562056301F077FE78B94E4BC4F894
:103CD00080309C6300221146352001F035FC3520F0
:103CE00001F042FC90E7FEF71BFD99E7FEF718FD97
:103CF000ECE702220023CDE90E230EA806F042FDD8
:103D0000002866D13D4BD3F8E82042F08042C3F84A
:103D1000E820D3F8E82002F080420392039AD3F817
:103D2000E02042F01002C3F8E020D3F8E03003F0C6
:103D300010030493049B4FF4C0733D9302233E93FE
:103D400000253F954095072341933DA9304803F056
:103D5000EFFC3048304B03604F2343608560C56003
:103D60004FF48063036145618561C5610562042389
:103D7000436203238362C562056301F01DFE58BBE5
:103D8000244BC4F880309C632448254B03605023A7
:103D90004360402383600023C3604FF4806202616C
:103DA00043618361C361036204224262032282622F
:103DB000C362036301F000FE88B9184BE3679C639C
:103DC00000221146522001F0BFFB522001F0CCFB33
:103DD0001AE7FEF7A5FC95E7FEF7A2FCD0E7FEF791
:103DE0009FFCEAE7005000400078004000100140CE
:103DF0000044004000480040001C014000440258BC
:103E000000080258000C02580810002470000240FC
:103E100000100258900F0024B8000240180F002430
:103E20001004024001220023CDE90E230EA806F063
:103E3000A9FC002866D1744BD3F8F02042F01002A0
:103E4000C3F8F020D3F8F02002F010020592059A92
:103E5000D3F8E02042F00102C3F8E020D3F8E030CC
:103E600003F001030693069B4FF4C0633D930223C6
:103E70003E9300253F954095072341933DA9634814
:103E800003F056FC6248634B03602923436085605E
:103E9000C5604FF48063036145618561C56105625A
:103EA0000423436203238362C562056301F084FD3A
:103EB00058BB574BC4F880309C635748574B03603E
:103EC0002A234360402383600023C3604FF4806251
:103ED000026143618361C36103620422426203227F
:103EE0008262C362036301F067FD88B94A4BE367EE
:103EF0009C6300221146252001F026FB252001F0BD
:103F000033FB81E6FEF70CFC95E7FEF709FCD0E7F2
:103F1000FEF706FCEAE702220023CDE90E230EA8F5
:103F200006F030FC002865D1374BD3F8E82042F486
:103F30000032C3F8E820D3F8E82002F400320792F8
:103F4000079AD3F8E02042F00802C3F8E020D3F843
:103F5000E03003F008030893089B70233D9302238D
:103F60003E9300253F954095072341933DA92C485A
:103F700003F0DEFB2B482C4B03602B234360856052
:103F8000C5604FF48063036145618561C561056269
:103F90000423436203238362C562056301F00CFDC1
:103FA00058BB204BC4F880309C632048204B0360F2
:103FB0002C234360402383600023C3604FF480625E
:103FC000026143618361C36103620422426203228E
:103FD0008262C362036301F0EFFC88B9134BE367AD
:103FE0009C6300221146262001F0AEFA262001F043
:103FF000BBFA09E6FEF794FB96E7FEF791FBD0E7E4
:10400000FEF78EFBEAE700BF0044025800000258AA
:10401000A00E002488000240280E0024A0000240C8
:10402000000C0258B00D002428000240380D002476
:104030001000024002220023CDE90E230EA806F054
:10404000A1FB00287DD1804BD3F8E82042F48022E8
:10405000C3F8E820D3F8E82002F480220992099AF4
:10406000D3F8E02042F00202C3F8E020D3F8E020C9
:1040700002F002020A920A9AD3F8E02042F0080203
:10408000C3F8E020D3F8E03003F008030B930B9B58
:104090004FF480433D9302273E9700253F9540957E
:1040A000072641963DA9694803F042FB4FF440734F
:1040B0003D933E973F95409541963DA9644803F056
:1040C00037FB6448644B03602D2343608560C56003
:1040D0004FF48063036145618561C5610562042316
:1040E000436203238362C562056301F065FC58BB2C
:1040F000584BC4F880309C635848594B03602E23BA
:104100004360402383600023C3604FF480620261F8
:1041100043618361C36103620422426203228262BB
:10412000C362036301F048FC88B94C4BE3679C63AE
:1041300000221146272001F007FA272001F014FA87
:1041400062E5FEF7EDFA7EE7FEF7EAFAD0E7FEF762
:10415000E7FAEAE701220023CDE90E230EA806F0D4
:1041600011FB002866D1384BD3F8F02042F08002D2
:10417000C3F8F020D3F8F02002F080020C920C9AE1
:10418000D3F8E02042F01002C3F8E020D3F8E0308A
:1041900003F010030D930D9B04233D9302273E97DC
:1041A00000253F95409541932E4E3DA9304603F0A2
:1041B000BFFA08233D933E973F9540950B234193CB
:1041C0003DA9304603F0B4FA2748284B0360762314
:1041D00043608560C5604FF480630361456185611C
:1041E000C5610562456201F0E7FB30BB1E4BC4F8B8
:1041F00080309C631E481F4B03607723436040233D
:1042000083600023C3604FF4806202614361836175
:10421000C3610362436201F0CFFB88B9144BE367CB
:104220009C63002211469C2001F08EF99C2001F035
:104230009BF9E9E4FEF774FA95E7FEF771FAD5E722
:10424000FEF76EFAEAE700BF004402580004025885
:10425000000C0258C00C002440000240480C00240E
:104260005800024000100258D00B002428040240DD
:10427000580B002440040240DFF838D0FEF78EFFD0
:10428000FEF724FF0C480D490D4A002302E0D458E4
:10429000C4500433C4188C42F9D30A4A0A4C002390
:1042A00001E013600432A242FBD3FDF743FDFEF7A9
:1042B000A9FA7047000005240000002484010024AE
:1042C0000C5C01088801002470720024FEE70000E5
:1042D000104B1B780BB90120704710B504464FF402
:1042E0007A70B0FBF3F30C4A1068B0FBF3F001F006
:1042F0003FF968B90F2C01D901200AE000222146BC
:104300004FF0FF3001F020F9044B1C60002000E06A
:10431000012010BD58000024540000245C0000243B
:1043200010B5032001F0FEF805F098FE0F498B69E7
:10433000C3F303230E4AD35C03F01F03D8408B69F9
:1043400003F00F03D35C03F01F0320FA03F3094AC1
:104350001360094B18600F20FFF7BAFF10B101245A
:10436000204610BD0446FEF771FDF9E700440258EF
:10437000405B01085000002454000024034B1B78CC
:10438000034A11680B441360704700BF58000024B3
:10439000F8130024014B1868704700BFF81300247D
:1043A00038B50446FFF7F6FF0546B4F1FF3F02D0EB
:1043B000044B1B781C44FFF7EDFF401BA042FAD3CF
:1043C00038BD00BF58000024034A536823EA0003A5
:1043D0000B435360704700BF0004005810B400F155
:1043E000600C0D4CA0420CD05CF8210000F00040A5
:1043F00002F0F842134303434CF821305DF8044BBC
:1044000070475CF8210002F0F842134343F0004388
:104410004CF82130F2E700BF0060025800F1600C58
:10442000094B984207D05CF8213023F000431A432F
:104430004CF8212070475CF8213023F000431343EF
:104440004CF82130704700BF0060025810B4303083
:104450000B0A9B0003F00C03C45801F01F014FF03E
:104460001F0C0CFA01FC24EA0C0CC2F384628A4093
:104470004CEA0202C2505DF8044B704710B414308D
:104480004B0E9B0003F00403C458C1F304514FF0DA
:10449000070C0CFA01FC24EA0C0C8A404CEA0202DC
:1044A000C2505DF8044B7047134B984211D0D0F8BE
:1044B000C030C1F3130C23EA0C0C02F018020F4BAE
:1044C000D3401940C1F313014CEA0101C0F8C010F8
:1044D0007047D0F8B030C1F3130C23EA0C0C02F093
:1044E0001802064BD3400B40C3F313034CEA0303FB
:1044F000C0F8B030704700BF00600258FFFF0F00E7
:104500000C4B984209D0C1F313033BB9C1F384614A
:1045100001228A40C3691343C361704791FAA1F134
:1045200031B1B1FA81F101F01F0101228A40F1E7B6
:104530002021F8E7006002587047704708B5806B8B
:10454000FFF7FBFF08BD704708B50346806B026E9E
:1045500012F0500F30D1036E43F40073036603680A
:104560001A6812F0080F14D0DA6812F4406F20D1E4
:10457000DB6813F4005F1CD1036E23F480730366C1
:10458000036E13F4805F14D1036E43F001030366DE
:104590000FE0DB6813F0030F0BD1036E23F480737D
:1045A0000366036E13F4805F03D1036E43F00103CF
:1045B0000366FFF7C1FF08BD026E12F0100F04D1B1
:1045C000826DD26C18469047F5E7FFF7BCFFF2E723
:1045D00008B5806B036E43F040030366436E43F0FF
:1045E00004034366FFF7AFFF08BD000070B582B05B
:1045F0000023019390F85C30012B00F0E482044624
:104600000D46012380F85C3001688B6813F0040FBD
:1046100009D0036E43F0200303660120002384F8D1
:104620005C3002B070BD2B68002B0CDBA74A9142B6
:1046300009D0C3F3130272BBC3F3846301229A400F
:10464000CB691343CB612A6869682068FFF7FEFED7
:104650002068836813F0040300D00123826812F0FD
:10466000080200D0012252EA030620D020688668A2
:1046700016F0010640F0A382EA682968FFF714FFEC
:10468000EA68934B9A4200F036812B68002BC0F207
:10469000E4810020C2E793FAA3F333B1B3FA83F3C2
:1046A00003F01F0301229A40CAE72023F8E7AA6813
:1046B0002968FFF7E3FE2068844B984211D0854BB0
:1046C0001B6803F07043B3F1805F3DD0C36813F003
:1046D000100F40D16B69C268C2F38202520093404E
:1046E00005E06B69C268C2F3C102520093402969B8
:1046F000042938D1754B98427FD0036E03F0F843FC
:104700002A68B3EB826F00F0E7802268536E03F0F3
:10471000F8432968B3EB816F00F0E3802268936E61
:1047200003F0F8432968B3EB816F00F0DF80226863
:10473000D36E03F0F8432968B3EB816F96D1D36E43
:1047400023F00043D36691E76B69C268C2F382022B
:1047500052009340CBE76B69C268920802F00402F2
:1047600052009340C3E72A68FFF738FE2368574A90
:1047700093421CD0286995F82120012A37D0314670
:10478000603353F8202022F000420A4343F82020EF
:1047900021682A692B7E012B2CD00B6923F4F0436E
:1047A00002F01F0206FA02F213430B615EE728696A
:1047B000EA69603353F8201021F080710A4343F80E
:1047C00020202368296995F82020012A0CD03F4A2F
:1047D00093427FF44BAF603353F8212022F00072F4
:1047E000324343F8212041E74FF00076EFE74FF0E6
:1047F0000041C5E74FF40066CFE7036E026EC2F3D7
:1048000084622B68C3F3130181BBC3F384639A42B0
:1048100034D02068436E426EC2F384622B68C3F3C7
:10482000130181BBC3F384639A4234D02068836E42
:10483000826EC2F384622B68C3F3130181BBC3F39E
:1048400084639A4234D02068C36EC26EC2F384621D
:104850002B68C3F3130181BBC3F384639A427FF4D3
:1048600005AF00220321FFF7D9FDFFE693FAA3F37A
:1048700013B1B3FA83F3CAE72023C8E70022114635
:10488000FFF7CCFDC5E793FAA3F313B1B3FA83F3B3
:10489000CAE72023C8E700220121FFF7BFFDC5E7D3
:1048A00093FAA3F313B1B3FA83F3CAE72023C8E75B
:1048B00000220221FFF7B2FDC5E793FAA3F313B17B
:1048C000B3FA83F3CAE72023C8E700BF00600258A9
:1048D0000000FF470010005C036E23F000430366F6
:1048E00013E7536E23F00043536617E7936E23F0EC
:1048F000004393661BE72068904B984209D0904B89
:1049000098422FD08F4B984252D03146FFF7F8FD96
:10491000BBE62B688C4A93426DD08C4A93426CD094
:104920008B4A93426BD08B4A93426AD002F18662E3
:104930001032934267D0884A934266D002F1042233
:1049400002F54012934262D002F1866202F50062E3
:1049500093425ED0814A93425DD0814A9342D4D142
:10496000804ED2E72B68784A934256D0774A9342DA
:1049700055D0774A934254D0764A934253D002F1AD
:1049800086621032934250D0734A93424FD002F164
:10499000042202F5401293424BD002F1866202F5E6
:1049A0000062934247D06E4A9342AED16D4EACE75F
:1049B0002B68654A934240D0644A93423FD0644A90
:1049C00093423ED0634A93423DD002F18662103258
:1049D00093423AD0604A934239D002F1042202F560
:1049E0004012934235D0604A934234D05F4A93429A
:1049F0008BD15F4E89E7012687E75E4E85E75E4EE5
:104A000083E75E4E81E75E4E7FE75E4E7DE75E4E5A
:104A10007BE7554E79E75D4E77E7012675E7554E02
:104A200073E7554E71E7554E6FE7554E6DE7554E9E
:104A30006BE7554E69E74C4E67E7012665E74D4E3B
:104A400063E74D4E61E74D4E5FE74D4E5DE74D4EDE
:104A50005BE74D4E59E7454E57E7226837493848DE
:104A6000824218BF8A420CBF0121002118D1484E52
:104A7000B56805F0E07CA9B13049886810F0010004
:104A800000D001202E49896811F0010100D00121D8
:104A900001430CD0236E43F0200323660120BDE5C3
:104AA0003C4EE5E72749896811F0010FF2D13A49F8
:104AB0008B4207D039498B4226D039498B4234D0BA
:104AC0000020ABE515F4000FF4D11E4B9A4201D043
:104AD0000020A3E54CF40003B26822F0E072134317
:104AE000B360304B1B689B092F4AA2FB03239B0931
:104AF00001335B00019302E0019B013B0193019BA9
:104B0000002BF9D1002089E515F0807FD5D10D4B20
:104B10009A4201D0002081E54CF08073B26822F007
:104B2000E0721343B360002078E515F4800F48D19C
:104B3000044B9A423AD0002070E500BF00200240AA
:104B400000210240006002580200300404006008A6
:104B50000800900C1000C0100004002A000021433F
:104B60000000844B0000B84F002090360040C03A4F
:104B70000080F03E400020198000501D000180217F
:104B80000002B0250008302E0010603200005247AD
:104B90000023024000630258000052C7000021C3F6
:104BA000000084CB54000024632D3E054CF48003A8
:104BB000B26822F0E0721343B36000202EE50020BB
:104BC0002CE500202AE502202BE500BF38B503685C
:104BD0009A6812F0010F56D1044699682B4A114287
:104BE00009D0036E43F010030366436E43F00103E4
:104BF0004366012048E09968254A0A4042F00102D4
:104C00009A60FFF7C7FB054623682249224A934270
:104C100018BF8B420DD102F50072926802F01F029C
:104C20001D498B4207D01946994207D032B1002066
:104C30002AE01A4AF1E7A1F58071F5E723681A68BE
:104C400012F0010F1DD19A6812F0010F05D1996879
:104C50000F4A0A4042F001029A60FFF79BFB401B9B
:104C60000228EBD923681B6813F0010FE6D1236EED
:104C700043F010032366636E43F001036366012073
:104C800002E0002000E0002038BD00BF3F000080AF
:104C9000C0FFFF7F00200240002102400063025855
:104CA000F8B504460E4617460068474A474B9842F7
:104CB00018BF90421CD103F500739D6805F01F05D5
:104CC000806810F0040F7AD194F85C30012B78D012
:104CD000012384F85C30092D05D840F22123EB40F4
:104CE00013F0010F06D1002384F85C30012067E047
:104CF000374BE2E72046FFF769FF00285BD1226EC1
:104D0000A0F60273134043F48073236623682F4A8E
:104D100093423CD01A46934200D01DB9236E23F42F
:104D200080132366236E13F4805F33D0636E23F009
:104D300006036366A36D274ADA63A36D264A1A64E5
:104D4000A36D264ADA6423681C221A60002384F8C3
:104D50005C302268536843F0100353602368204A94
:104D600093421AD0226BD96821F003010A43DA601A
:104D700021683B4632464031A06D00F0EBFF2268CF
:104D80009168184B0B4043F00403936018E0A2F5C0
:104D90008072C0E700236366CCE794F83810DA68C5
:104DA00022F0030242EA4102DA602268D36843F04B
:104DB0000103D360DCE7002384F85C3000E00220CC
:104DC000F8BD0220FCE700BF0020024000210240A5
:104DD00000630258494500083D450008D1450008D8
:104DE00000600258C0FFFF7F38B504460268936830
:104DF00013F0020300D00123916811F0010F37D0A6
:104E0000002B37D1936803F00D03012B09D0236EDB
:104E100043F010032366636E43F0010363660120D1
:104E200027E09168144B0B4043F002039360236822
:104E300003221A60FFF7AEFA054623689B6813F059
:104E4000010F13D0FFF7A6FA401B0228F5D92368FB
:104E50009B6813F0010FF0D0236E43F0100323661C
:104E6000636E43F001036366012002E0002000E06E
:104E7000002038BD0020FCE7C0FFFF7F10B50446CE
:104E800003684349434A934218BF8B421FD1424BA8
:104E90009B6813F4403F14BF012300230BB305F0BC
:104EA00023FB6368B3F5003F05D0B3F5403F16D050
:104EB000B3F5803F02D11B0CB0FBF3F0374B9842A7
:104EC00049D82268936823F44073936010BD344B33
:104ED0009B6813F4403F14BF01230023DEE78008E2
:104EE000ECE74FF40020002106F074FC6368B3F592
:104EF000101F2CD021D8B3F5E01F26D004D9B3F56C
:104F0000001FDBD14009D9E7B3F5801F10D009D8C5
:104F1000B3F5002F0CD0B3F5402F09D0B3F5802F97
:104F200006D0CBE7B3F5A01F02D0B3F5C01FC5D1A3
:104F30009B0C5B00B0FBF3F0C0E7B3F5201F08D07B
:104F4000B3F5301FBAD1000AB8E70009B6E7800907
:104F5000B4E7C009B2E7134B984207D822689368B8
:104F600023F4407343F480739360AFE70E4B984291
:104F700007D82268936823F4407343F40073936066
:104F8000A4E72268936843F4407393609EE700BFF0
:104F900000200240002102400023024021BCBE004C
:104FA0000063025841787D0181F0FA0230B583B088
:104FB00000230193002800F043810446036EEBB107
:104FC00023689A6812F0005F03D099689D4A0A40EE
:104FD0009A6023689A6812F0805F1CD199689A4A97
:104FE0000A4042F080529A60984B1B689B09984A8D
:104FF000A2FB03239B090133019309E0FDF706F8A7
:105000000023636684F85C30DAE7019B013B01937F
:10501000019B002BF9D123689A6812F0805F40F061
:105020009F80226E42F010022266626E42F0010200
:10503000626601259A6812F0040200D00122216EF6
:1050400011F0100F40F0F480002A40F0F180216E42
:1050500021F4817141F002012166996811F0010F7C
:105060001ED17C487C498B4218BF83420CBF012370
:10507000002377D1806810F0010000D0012076492C
:10508000896811F0010100D00121014308D1002BF2
:105090006ED072486368816821F47C110B43836091
:1050A00021686F4B994265D0627EE36B43EA4233DD
:1050B000A268134394F8202043EA024394F8202086
:1050C000012A6FD0A26A22B102F47872E06A024328
:1050D0001343634A91426AD0C868624A02401A4345
:1050E000CA6021688A6812F0040200D001228B682D
:1050F00013F0080300D00123134322D1584B9942E7
:1051000062D0237E226B42EA8332C868564B03404A
:105110001343CB6094F84430012B5CD022681369B0
:1051200023F0010313612268136923F07043216C9B
:105130000B43136122684A4B9A4202D02046FFF784
:105140009DFE2369012B6AD02268136B23F00F03A5
:105150001363236E23F0030343F0010323666CE023
:10516000002567E73E49896811F0010F98D18EE765
:105170003E488FE7607EE36B43EA4033E0680343D9
:10518000A068182804D01C2808D00C2808D10820B2
:10519000034394F8202043EA02438FE71020F7E707
:1051A0001046F5E7626A013A43EA42438AE7C86873
:1051B0002F4A02401A43CA602268136923F04063F1
:1051C000616B0B4313618CE7237E94F83820520007
:1051D00042EA833299E72168214B994210D00A694B
:1051E000244B1340A26C501EE26C42EA0042206D38
:1051F0000243606D0243134343F001030B6192E7E6
:105200000A691D4B1340A26CE06C0243206D0243FF
:10521000606D0243134343F001030B6183E7216890
:105220000B6B23F00F03E269013A13430B6390E722
:10523000236E43F0100323660125284603B030BDDA
:105240000125FAE7C0FFFF5FC0FFFF6F5400002495
:10525000632D3E0500200240002102400023024051
:105260000060025803C0F0FFFCBFFFFF006302585C
:105270000740F0FF1EF800FC1FF800FC70B582B07C
:105280000023019390F85C30012B43D004460D4677
:105290001646012380F85C30FFF7A6FD002830D1C8
:1052A000226E1D4B134043F00203236621688A6877
:1052B0001A4B134005F4803506F0804645EA060295
:1052C000134343F000438B6023689B68002B06DB8D
:1052D000236E23F0030343F00103236615E0019BD3
:1052E00001330193019A0E4B9A42EDD3236E23F0C2
:1052F000120343F010032366002384F85C3001207E
:1053000006E0236E43F010032366002384F85C302C
:1053100002B070BD0220FBE7FDEEFFFFC0FFFE3FC5
:1053200000F8C32590F85C20012A00F0968030B484
:105330009CB00346012280F85C200022189219924A
:105340000068474A904236D000220092009A002A14
:1053500035D0926812F0040200D00122846814F063
:10536000040F6BD1002A69D13D4C3E4A904218BFD0
:10537000A0422DD102F500720868002839D090684B
:1053800020F440404C68204390601868344D354C00
:10539000A04218BFA8421DD1AC6814F0010400D08F
:1053A00001243048806810F0010000D00120204323
:1053B00015D0002047E002F580720092C6E71A6E11
:1053C00042F020021A66002283F85C2001203DE0B2
:1053D000254AD1E72548806810F0010F39D194683B
:1053E000234820400C6889682143084390600020CE
:1053F00029E0916821F4404191601968184C1948DE
:10540000814218BFA1420ED1A06810F0010000D067
:1054100001201449896811F0010100D001210143E4
:1054200006D000200FE01149896811F0010F12D158
:1054300090680F4901409160002004E01A6E42F02C
:1054400020021A660120002283F85C201CB030BCC8
:1054500070470020F7E70020F5E70220704700BF03
:105460000020024000210240006302580060025800
:10547000E0F0FFFFA0B110B5044690F8213053B121
:10548000002060626060A060E060206160610123D4
:1054900084F8213010BD80F82030FCF737FEEFE7AC
:1054A00001207047002807DB00F01F02400901239C
:1054B0009340024A42F82030704700BF00E100E00C
:1054C000002804DB0901C9B2044B1954704700F0ED
:1054D0000F000901C9B2024B1954704700E400E003
:1054E00014ED00E000B500F00700C0F1070CBCF1BE
:1054F000040F28BF4FF0040C031D062B0FD9C31E49
:105500004FF0FF3E0EFA0CF021EA000199400EFA2E
:1055100003FE22EA0E0241EA02005DF804FB0023CA
:10552000EEE700000649CB6823F4E0631B041B0C84
:10553000000200F4E0600343024A1A43CA60704765
:1055400000ED00E00000FA0510B50446054BD868F0
:10555000C0F30220FFF7C6FF01462046FFF7B0FF69
:1055600010BD00BF00ED00E008B5FFF79BFF08BDD0
:105570000138B0F1807F0BD24FF0E0235861054A2B
:10558000F02182F823100020986107221A617047E9
:105590000120704700ED00E0F0B4876D0468664EAE
:1055A000664DAC4218BFB44242D01835AC423FD031
:1055B0001835AC423CD01835AC4239D01835AC4225
:1055C00036D01835AC4233D01835AC4230D005F562
:1055D0005675AC422CD01835AC4229D01835AC42A7
:1055E00026D01835AC4223D01835AC4220D018351F
:1055F000AC421DD01835AC421AD01835AC4217D089
:105600004F4DAC4214D01435AC4211D01435AC42DD
:105610000ED01435AC420BD01435AC4208D0143542
:10562000AC4205D01435AC4202D01435AC4207D19F
:10563000446E856E6560C46E14B1046F456F65601D
:1056400004683D4E3D4DAC4218BFB44252D01835AF
:10565000AC424FD01835AC424CD01835AC4249D092
:105660001835AC4246D01835AC4243D01835AC4260
:1056700040D005F55675AC423CD01835AC4239D017
:105680001835AC4236D01835AC4233D01835AC4260
:1056900030D01835AC422DD01835AC422AD0183550
:1056A000AC4227D0264E274DAC4218BFB44211D091
:1056B000254DAC420ED01435AC420BD01435AC4263
:1056C00008D01435AC4205D01435AC4202D01435A4
:1056D000AC4224D1C46D04F01F050124AC407C60B1
:1056E000046863608368402B20D003689960036876
:1056F000DA6014E0C46D04F01F0C3F2404FA0CF4CB
:10570000BC6005682C6824F480242C600468636005
:105710008368402B05D0036899600368DA60F0BCA9
:10572000704703689A600368D960F8E703689A6075
:105730000368D960F3E700BF100002402800024070
:10574000085402581C540258305402580368274920
:10575000274A934218BF8B422FD0183293422CD045
:105760001832934229D01832934226D018329342ED
:1057700023D01832934220D0183293421DD002F524
:105780005672934219D01832934216D0183293426F
:1057900013D01832934210D0183293420DD01832E1
:1057A00093420AD01832934207D01832934204D061
:1057B00023F0FF038365806D704710B4D9B21039B0
:1057C0000C4AA2FB0142C2F302120B4CA25CC2655E
:1057D0005F2907D96FF3090304338365806D5DF892
:1057E000044B70476FF309038365F7E7100002402D
:1057F00028000240ABAAAAAA505B010883699BB9A2
:10580000836A012B0AD0022B02D00BB10020704713
:10581000C36A13F0807F2AD100207047C36AB3F1B6
:10582000C07F26D000207047B3F5005F0AD0836A9E
:10583000022B26D9032B26D1C36A13F0807F24D1F3
:1058400000207047836A032B03D8DFE803F01404B9
:10585000140A00207047C36A13F0807F0DD1002026
:105860007047C36AB3F1C07F09D0002070470120A0
:1058700070470120704701207047012070470120C8
:1058800070470120704700207047012070470000DA
:1058900003682149214A934218BF8B4227D0143212
:1058A000934224D01432934221D0143293421ED01A
:1058B000143293421BD01432934218D014329342C4
:1058C00015D0DAB2103A1649A1FB02121209154995
:1058D0001944A8291ED9144B13449B000366134B8B
:1058E000436602F01F020123934083667047DBB2D8
:1058F000083B0F4AA2FB03230E4A02EB131292004D
:1059000002660D4A4266C3F30413012202FA03F34E
:10591000836670470832DEE7085402581C54025868
:10592000ABAAAAAAF0FBFDBF0082001080080240CB
:10593000CDCCCCCC009600168058025801794A1E76
:10594000072A2BD830B40368154D164CA34218BF54
:10595000AB4218D01434A34215D01434A34212D051
:105960001434A3420FD01434A3420CD01434A342F5
:1059700009D01434A34206D00B4B0B449B00C366E2
:105980000A4B036705E00A4B0B449B00C366094BB7
:10599000036701239340436730BC7047704700BFE3
:1059A000085402581C5402583F820010400902401B
:1059B0003F9600164059025870B50446FEF7EAFCBF
:1059C000002C00F0B781054623685349534A93429F
:1059D00018BF8B420CBF0121002150D018329342D6
:1059E0004DD0183293424AD01832934247D01832E1
:1059F000934244D01832934241D0183293423ED061
:105A000002F5567293423AD01832934237D0183288
:105A1000934234D01832934231D0183293422ED070
:105A2000183293422BD01832934228D01832934226
:105A300025D03B493B4A934218BF8B4200F032814C
:105A4000394A934200F02E811432934200F02A81A9
:105A50001432934200F026811432934200F02281E6
:105A60001432934200F01E811432934200F01A81E6
:105A700040236365032384F8353001204AE0022285
:105A800084F83520002284F8342079BB274A9342D9
:105A90002CD01832934229D01832934226D0183293
:105AA000934223D01832934220D0183293421DD013
:105AB00002F55672934219D01832934216D018321A
:105AC000934213D01832934210D0183293420DD023
:105AD000183293420AD01832934207D018329342B8
